{
  "contractName": "Wrestling",
  "abi": [
    {
      "constant": true,
      "inputs": [],
      "name": "theWinner",
      "outputs": [
        {
          "name": "",
          "type": "address"
        }
      ],
      "payable": false,
      "stateMutability": "view",
      "type": "function"
    },
    {
      "constant": true,
      "inputs": [],
      "name": "wrestler2",
      "outputs": [
        {
          "name": "",
          "type": "address"
        }
      ],
      "payable": false,
      "stateMutability": "view",
      "type": "function"
    },
    {
      "constant": true,
      "inputs": [],
      "name": "wrestler1Played",
      "outputs": [
        {
          "name": "",
          "type": "bool"
        }
      ],
      "payable": false,
      "stateMutability": "view",
      "type": "function"
    },
    {
      "constant": true,
      "inputs": [],
      "name": "wrestler1",
      "outputs": [
        {
          "name": "",
          "type": "address"
        }
      ],
      "payable": false,
      "stateMutability": "view",
      "type": "function"
    },
    {
      "constant": true,
      "inputs": [],
      "name": "gameFinished",
      "outputs": [
        {
          "name": "",
          "type": "bool"
        }
      ],
      "payable": false,
      "stateMutability": "view",
      "type": "function"
    },
    {
      "constant": true,
      "inputs": [],
      "name": "wrestler2Played",
      "outputs": [
        {
          "name": "",
          "type": "bool"
        }
      ],
      "payable": false,
      "stateMutability": "view",
      "type": "function"
    },
    {
      "anonymous": false,
      "inputs": [
        {
          "indexed": false,
          "name": "wrestler1",
          "type": "address"
        },
        {
          "indexed": false,
          "name": "wrestler2",
          "type": "address"
        }
      ],
      "name": "WrestlingStartsEvent",
      "type": "event"
    },
    {
      "anonymous": false,
      "inputs": [
        {
          "indexed": false,
          "name": "wrestler1Deposit",
          "type": "uint256"
        },
        {
          "indexed": false,
          "name": "wrestler2Deposit",
          "type": "uint256"
        }
      ],
      "name": "EndOfRoundEvent",
      "type": "event"
    },
    {
      "anonymous": false,
      "inputs": [
        {
          "indexed": false,
          "name": "winner",
          "type": "address"
        },
        {
          "indexed": false,
          "name": "gains",
          "type": "uint256"
        }
      ],
      "name": "EndOfWrestlingEvent",
      "type": "event"
    },
    {
      "constant": false,
      "inputs": [],
      "name": "registerAsWrestler1",
      "outputs": [],
      "payable": false,
      "stateMutability": "nonpayable",
      "type": "function"
    },
    {
      "constant": false,
      "inputs": [],
      "name": "registerAsWrestler2",
      "outputs": [],
      "payable": false,
      "stateMutability": "nonpayable",
      "type": "function"
    },
    {
      "constant": false,
      "inputs": [],
      "name": "wrestle",
      "outputs": [],
      "payable": true,
      "stateMutability": "payable",
      "type": "function"
    },
    {
      "constant": false,
      "inputs": [],
      "name": "withdraw",
      "outputs": [],
      "payable": false,
      "stateMutability": "nonpayable",
      "type": "function"
    }
  ],
  "bytecode": "0x608060405234801561001057600080fd5b50610a0d806100206000396000f3006080604052600436106100a4576000357c0100000000000000000000000000000000000000000000000000000000900463ffffffff16806303cc5597146100a95780633ccfd60b146100b35780639d24e482146100ca5780639e07f92a146101215780639ede385814610178578063a65af28c146101a7578063d883b317146101be578063e2f0a978146101d5578063f0f324971461022c578063f973728e1461025b575b600080fd5b6100b161028a565b005b3480156100bf57600080fd5b506100c8610501565b005b3480156100d657600080fd5b506100df6105ce565b604051808273ffffffffffffffffffffffffffffffffffffffff1673ffffffffffffffffffffffffffffffffffffffff16815260200191505060405180910390f35b34801561012d57600080fd5b506101366105f4565b604051808273ffffffffffffffffffffffffffffffffffffffff1673ffffffffffffffffffffffffffffffffffffffff16815260200191505060405180910390f35b34801561018457600080fd5b5061018d61061a565b604051808215151515815260200191505060405180910390f35b3480156101b357600080fd5b506101bc61062d565b005b3480156101ca57600080fd5b506101d3610800565b005b3480156101e157600080fd5b506101ea610842565b604051808273ffffffffffffffffffffffffffffffffffffffff1673ffffffffffffffffffffffffffffffffffffffff16815260200191505060405180910390f35b34801561023857600080fd5b50610241610867565b604051808215151515815260200191505060405180910390f35b34801561026757600080fd5b5061027061087a565b604051808215151515815260200191505060405180910390f35b600460009054906101000a900460ff1615801561034b57506000809054906101000a900473ffffffffffffffffffffffffffffffffffffffff1673ffffffffffffffffffffffffffffffffffffffff163373ffffffffffffffffffffffffffffffffffffffff16148061034a5750600160009054906101000a900473ffffffffffffffffffffffffffffffffffffffff1673ffffffffffffffffffffffffffffffffffffffff163373ffffffffffffffffffffffffffffffffffffffff16145b5b151561035657600080fd5b6000809054906101000a900473ffffffffffffffffffffffffffffffffffffffff1673ffffffffffffffffffffffffffffffffffffffff163373ffffffffffffffffffffffffffffffffffffffff1614156103fc5760001515600160149054906101000a900460ff1615151415156103cd57600080fd5b3460026000828254019250508190555060018060146101000a81548160ff021916908315150217905550610449565b60001515600160159054906101000a900460ff16151514151561041e57600080fd5b3460036000828254019250508190555060018060156101000a81548160ff0219169083151502179055505b600160149054906101000a900460ff1680156104715750600160159054906101000a900460ff165b156104ff576002600354026002541015156104b5576104b06000809054906101000a900473ffffffffffffffffffffffffffffffffffffffff1661088d565b6104fe565b60028054026003541015156104f4576104ef600160009054906101000a900473ffffffffffffffffffffffffffffffffffffffff1661088d565b6104fd565b6104fc610966565b5b5b5b565b6000600460009054906101000a900460ff16801561056c57503373ffffffffffffffffffffffffffffffffffffffff16600460019054906101000a900473ffffffffffffffffffffffffffffffffffffffff1673ffffffffffffffffffffffffffffffffffffffff16145b151561057757600080fd5b600554905060006005819055503373ffffffffffffffffffffffffffffffffffffffff166108fc829081150290604051600060405180830381858888f193505050501580156105ca573d6000803e3d6000fd5b5050565b600460019054906101000a900473ffffffffffffffffffffffffffffffffffffffff1681565b600160009054906101000a900473ffffffffffffffffffffffffffffffffffffffff1681565b600160149054906101000a900460ff1681565b600073ffffffffffffffffffffffffffffffffffffffff16600160009054906101000a900473ffffffffffffffffffffffffffffffffffffffff1673ffffffffffffffffffffffffffffffffffffffff161480156106d857506000809054906101000a900473ffffffffffffffffffffffffffffffffffffffff1673ffffffffffffffffffffffffffffffffffffffff163373ffffffffffffffffffffffffffffffffffffffff1614155b15156106e357600080fd5b33600160006101000a81548173ffffffffffffffffffffffffffffffffffffffff021916908373ffffffffffffffffffffffffffffffffffffffff1602179055507fd4443f0433b17d5fcbda14745060c62f4fd645677efd560e394d49cc6b73b9e56000809054906101000a900473ffffffffffffffffffffffffffffffffffffffff16600160009054906101000a900473ffffffffffffffffffffffffffffffffffffffff16604051808373ffffffffffffffffffffffffffffffffffffffff1673ffffffffffffffffffffffffffffffffffffffff1681526020018273ffffffffffffffffffffffffffffffffffffffff1673ffffffffffffffffffffffffffffffffffffffff1681526020019250505060405180910390a1565b336000806101000a81548173ffffffffffffffffffffffffffffffffffffffff021916908373ffffffffffffffffffffffffffffffffffffffff160217905550565b6000809054906101000a900473ffffffffffffffffffffffffffffffffffffffff1681565b600460009054906101000a900460ff1681565b600160159054906101000a900460ff1681565b6001600460006101000a81548160ff02191690831515021790555080600460016101000a81548173ffffffffffffffffffffffffffffffffffffffff021916908373ffffffffffffffffffffffffffffffffffffffff160217905550600354600254016005819055507f132c17ee6430a7c27424b2711c0e3f020ae13d9d62cfb347ae343c2180654bcb81600554604051808373ffffffffffffffffffffffffffffffffffffffff1673ffffffffffffffffffffffffffffffffffffffff1681526020018281526020019250505060405180910390a150565b6000600160146101000a81548160ff0219169083151502179055506000600160156101000a81548160ff0219169083151502179055507f4a06b026e39d5ecf4150ef1983227e240bcd23677c8d89479f9521c4e7bed63e600254600354604051808381526020018281526020019250505060405180910390a15600a165627a7a723058206de5da6376bf5cf261ccdddabee9a84aad7bbdcbac76503d19b6c66a94e1a3180029",
  "source": "pragma solidity ^0.4.4;\n\n\ncontract Wrestling {\n\n  address public wrestler1;\n  address public wrestler2;\n\n  bool public wrestler1Played;\n  bool public wrestler2Played;\n\n  uint private wrestler1Deposit;\n  uint private wrestler2Deposit;\n\n  bool public gameFinished;\n\n  address public theWinner;\n\n  uint gains;\n\n  event WrestlingStartsEvent (address wrestler1, address wrestler2);\n\n  event EndOfRoundEvent (uint wrestler1Deposit, uint wrestler2Deposit);\n\n  event EndOfWrestlingEvent (address winner, uint gains);\n\n  function registerAsWrestler1() public {\n    wrestler1 = msg.sender;\n  }\n\n  function registerAsWrestler2() public {\n    require((wrestler2 == address(0)) && (msg.sender != wrestler1));\n\n    wrestler2 = msg.sender;\n\n    emit WrestlingStartsEvent(wrestler1, wrestler2);\n  }\n\n\n  function wrestle() public payable {\n    require(!gameFinished && (msg.sender == wrestler1 || msg.sender == wrestler2));\n\n    if (msg.sender == wrestler1) {\n      require(wrestler1Played == false);\n      wrestler1Deposit += msg.value;\n      wrestler1Played = true;\n    } else {\n      require(wrestler2Played == false);\n      wrestler2Deposit += msg.value;\n      wrestler2Played = true;\n    }\n\n    if (wrestler1Played && wrestler2Played) {\n      if (wrestler1Deposit >= wrestler2Deposit * 2) {\n        endOfGame(wrestler1);\n      } else if (wrestler2Deposit >= wrestler1Deposit * 2) {\n        endOfGame(wrestler2);\n      } else {\n        endOfRound();\n      }\n    }\n  }\n\n  function endOfRound() internal {\n    wrestler1Played = false;\n    wrestler2Played = false;\n\n    emit EndOfRoundEvent(wrestler1Deposit, wrestler2Deposit);\n  }\n\n  function endOfGame(address winner) internal {\n    gameFinished = true;\n    theWinner = winner;\n\n    gains = wrestler1Deposit + wrestler2Deposit;\n\n    emit EndOfWrestlingEvent(winner, gains);\n  }\n\n  function withdraw() public {\n    require(gameFinished && theWinner == msg.sender);\n\n    uint amount = gains;\n\n    gains = 0;\n\n    msg.sender.transfer(amount);\n  }\n}\n",
  "sourcePath": "/Users/michaelshatskiy/Desktop/Work/Ether/wrestling/contracts/Wrestling.sol",
  "compiler": {
    "name": "solc",
    "version": "0.4.23+commit.124ca40d.Emscripten.clang"
  },
  "schemaVersion": "2.0.0",
  "updatedAt": "2018-05-31T23:08:18.064Z"
}